:10057D000371000000037C0000000874414C4152DF
:0E058D004D0D0A00C102C181C100026F0000C5
:1007D300E4F5C875CB3C75CAB085CBCD85CACCD200
:0407E300ADD2CA22A7
:03002B00020509C2
:10050900C0E0C0F0C083C082C0D075D000C000C0B8
:0D05190001C002C003C004C005C006C00739
:10052600C2CF0570E5707002056FC39414E56F9431
:10053600004029756F007570003001201206D9E55C
:1005460071B57C18E572B57D13E573C3957E400CD5
:0C055600E573D3957E5005200002D20012
:10056200D007D006D005D004D003D002D001D000ED
:0B057200D0D0D082D083D0F0D0E03297
:1006D9000573E573B43C05E4F5730572E572B43C42
:0F06E90005E4F5720571E571B41803E4F57122AB
:10059B000966475245534B410D0A001131565245DE
:1005AB004D4520504F444553454E4F0D0A001021E9
:1005BB00414C41524D20504F444553454E0D0A007E
:0805CB0001650003420000007D
:1007BC00759850438780759B1C759AFDD299C29889
:0707CC00D29CD2ACD2AF2297
:0300230002036570
:10036500C0E0C0F0C083C082C0D075D000C000C05E
:0D03750001C002C003C004C005C006C007DF
:10038200309924C299E54345444542601AAB42AADA
:1003920043A94412020C600F0544E5447002054370
:1003A20014F912020CF599309835C298AF99EF649E
:1003B2000D602CEF640A6027BF2803756500E565B0
:1003C200C3941F500AAE65056574452EF8A607BF93
:0F03D200290D74452565F876001202C97565007E
:1003E100D007D006D005D004D003D002D001D00070
:0B03F100D0D0D082D083D0F0D0E0321A
:10075200EA494B60158B428A4389440544E544705B
:0B07620002054314F912020CF5992265
:0F048800750D00750E00750F087B007A00794521
:060497008B0A8A0B890CA0
:10049D00E4FFAB0DAA0EA90F12020CAB0AAA0BA911
:1004AD000CF582758300120225FEC3648094B04062
:1004BD0008D3EE648094B940037FFF22AB0DAA0EE2
:1004CD00A90F12020CAB0AAA0BA90CF582758300B9
:1004DD00120225FEC3648094B04020D3EE64809454
:1004ED00B95018EE24D0FEEF75F00AA42EFFAB0D17
:0B04FD00AA0EA90F740112025280C168
:0105080022D0
:1002C900E4F508E5456428600302035B854609E512
:1002D9000964546006E50964417077E547642C7048
:1002E90071750803120488AD07EDF46065AF080560
:1002F9000874452FF8E6642C7058120488AC07EC92
:10030900F4604FAF08050874452FF8E6642C704275
:10031900120488EFF4603B74452508F8E6642970F7
:1003290031EDD39417502BEC943B5026EF943B506E
:1003390021E509B4540E8D718C728F737B007A009C
:10034900793180148D7C8C7D8F7E7B007A007921B8
:0B03590080067B007A007966120752D4
:010364002276
:0807F400414C41524D0D0A0079
:0305D300011C0008
:0C07E700E4FFE4FE0EBE78FC0FBF32F60B
:0107F30022E3
:10002E007580FF1207BC1207D312076DD2AF308056
:10003E00FD3081FA3082F73083F43084F13085EE72
:03004E001207E7AF
:1000510012067730000B7BFF7A0779F4120752C240
:1000610000E57175F00A842430F510E57175F00A28
:1000710084E5F02430F51175123AE57275F00A84C1
:100081002430F513E57275F00A84E5F02430F51497
:1000910075153AE57375F00A842430F516E5737524
:1000A100F00A84E5F02430F517E4F518FB7A0079BD
:1000B100101206B9120698E57C75F00A842430F511
:1000C10010E57C75F00A84E5F02430F51175123ADB
:1000D100E57D75F00A842430F513E57D75F00A8419
:1000E100E5F02430F51475153AE57E75F00A84249F
:1000F10030F516E57E75F00A84E5F02430F517E455
:10010100F518FB7A0079101206B91207E72080175B
:10011100E5712401FFE433FE7C007D181202748D29
:10012100713080FD1207E72081230572E572C394C7
:100131003C4014E4F572E5712401FFE433FE7C00D8
:100141007D181202748D713081FD1207E720822E15
:100151000573E573C3943C401FE4F5730572E572C2
:10016100943C4014E4F572E5712401FFE433FE7C14
:10017100007D181202748D713082FD1207E7208311
:1001810017E57C2401FFE433FE7C007D1812027424
:100191008D7C3083FD1207E7208423057DE57DC337
:1001A100943C4014E4F57DE57C2401FFE433FE7CBE
:1001B100007D181202748D7C3084FD1207E72085C2
:1001C1002E057EE57EC3943C401FE4F57E057DE56A
:1001D1007D943C4014E4F57DE57C2401FFE433FE8D
:1001E1007C007D181202748D7C3085FD1207E7209A
:1001F1008608C2013086FD1207E7308703020051ED
:08020100D2013087FD1207E76E
:030209000200519F
:0707FC007590E075B0F322D7
:10000300E58954F04401F589C2A9E4FF758CEEE457
:0F001300F58AD28C308DFDC28D0FBFC8EFC28C25
:0100220022BB
:10078800E58954F04401F589C2A9758CFF758AD2B0
:0A079800D28C308DFDC28DC28C2280
:1007A200E58954F04401F589C2A9758CF8758ACDA2
:0A07B200D28C308DFDC28DC28C2266
:1006F800C2B3D2B2C290C291C292C293C2B200D265
:0E070800B2C290D291D292C293C2B2020788BE
:10071600C2B3D2B2C290C291D292C293C2B200D236
:0E072600B2D290C291C292C293C2B2020788B0
:10067700C2B3D2B2C290C291C292C293C2B200D2E6
:10068700B2C290C291C292D293C2B21207A202071B
:01069700A2C0
:10073400C2B3D2B2C290C291C292C293C2B200D228
:0E074400B2D290D291D292D293C2B202078862
:10076D001207FC538FFE12000312071612073412E4
:0B077D0006771206F81207A2D29422A1
:10062C00D2B3D2B2EFC41313135401139290EFC48C
:10063C0013135403139291EFC4135407139292EFB4
:10064C00C4540F139293C2B200D2B2EF13131354CB
:10065C001F139290EF1313543F139291EFC3131384
:0B066C009292EF139293C2B202078833
:0606B9008B198A1A891B4F
:1006BF00E4FEAB19AA1AA91B8E82758300120225BC
:0906CF00FF600612062C0E80E902
:0106D80022FF
:10069800C2B3D2B2D290D291C292C293C2B200D2A5
:1006A800B2C290C291C292C293C2B21207A202070A
:0106B800A29F
:1005D700EF7003FF80027F40ED2FFFC2B3D2B2C49A
:1005E7001313135401139290EFC41313540313926C
:1005F70091EFC4135407139292EFC4540F139293BD
:10060700C2B200D2B2EF131313541F139290EF1319
:1006170013543F139291EFC313139292EF139293D4
:05062700C2B2020788C9
:030000000203FCFC
:0C03FC00787FE4F6D8FD75817E02044392
:10020C00BB010689828A83E0225002E722BBFE02F0
:09021C00E32289828A83E4932223
:10022500BB010CE58229F582E5833AF583E022508E
:1002350006E92582F8E622BBFE06E92582F8E222D8
:0D024500E58229F582E5833AF583E49322F2
:10025200BB010989828A83F8E028F022500327F73C
:1002620022BBFE05F8E328F3228A838982F8E4930D
:02027200282240
:10027400BC000BBE0029EF8DF084FFADF022E4CC6E
:10028400F875F008EF2FFFEE33FEEC33FCEE9DEC37
:10029400984005FCEE9DFE0FD5F0E9E4CEFD22ED7D
:1002A400F8F5F0EE8420D21CFEADF075F008EF2FC7
:1002B400FFED33FD4007985006D5F0F222C398FDB8
:0502C4000FD5F0EA2255
:1004080002002EE493A3F8E493A34003F68001F2DC
:1004180008DFF48029E493A3F85407240CC8C333F5
:10042800C4540F4420C8834004F456800146F6DFC4
:10043800E4800B010204081020408090057DE47ED2
:10044800019360BCA3FF543F30E509541FFEE493B9
:10045800A360010ECF54C025E060A840B8E493A380
:10046800FAE493A3F8E493A3C8C582C8CAC583CAAB
:10047800F0A3C8C582C8CAC583CADFE9DEE780BE63
:0105D6000024
:00000001FF
